{
  "abi": [
    {
      "inputs": [
        {
          "internalType": "uint256",
          "name": "_startTimestampPreSale",
          "type": "uint256"
        },
        {
          "internalType": "uint256",
          "name": "_endTimestampPreSale",
          "type": "uint256"
        },
        {
          "internalType": "uint256",
          "name": "_maxEtherCapPreSale",
          "type": "uint256"
        },
        {
          "internalType": "uint256",
          "name": "_minUserContributionPreSale",
          "type": "uint256"
        },
        {
          "internalType": "uint256",
          "name": "_maxUserContributionPreSale",
          "type": "uint256"
        },
        {
          "internalType": "uint256",
          "name": "_tokenPricePreSale",
          "type": "uint256"
        },
        {
          "internalType": "uint256",
          "name": "_minEtherCapPreSale",
          "type": "uint256"
        }
      ],
      "stateMutability": "nonpayable",
      "type": "constructor"
    },
    {
      "inputs": [
        {
          "internalType": "address",
          "name": "spender",
          "type": "address"
        },
        {
          "internalType": "uint256",
          "name": "allowance",
          "type": "uint256"
        },
        {
          "internalType": "uint256",
          "name": "needed",
          "type": "uint256"
        }
      ],
      "name": "ERC20InsufficientAllowance",
      "type": "error"
    },
    {
      "inputs": [
        {
          "internalType": "address",
          "name": "sender",
          "type": "address"
        },
        {
          "internalType": "uint256",
          "name": "balance",
          "type": "uint256"
        },
        {
          "internalType": "uint256",
          "name": "needed",
          "type": "uint256"
        }
      ],
      "name": "ERC20InsufficientBalance",
      "type": "error"
    },
    {
      "inputs": [
        {
          "internalType": "address",
          "name": "approver",
          "type": "address"
        }
      ],
      "name": "ERC20InvalidApprover",
      "type": "error"
    },
    {
      "inputs": [
        {
          "internalType": "address",
          "name": "receiver",
          "type": "address"
        }
      ],
      "name": "ERC20InvalidReceiver",
      "type": "error"
    },
    {
      "inputs": [
        {
          "internalType": "address",
          "name": "sender",
          "type": "address"
        }
      ],
      "name": "ERC20InvalidSender",
      "type": "error"
    },
    {
      "inputs": [
        {
          "internalType": "address",
          "name": "spender",
          "type": "address"
        }
      ],
      "name": "ERC20InvalidSpender",
      "type": "error"
    },
    {
      "inputs": [
        {
          "internalType": "address",
          "name": "owner",
          "type": "address"
        }
      ],
      "name": "OwnableInvalidOwner",
      "type": "error"
    },
    {
      "inputs": [
        {
          "internalType": "address",
          "name": "account",
          "type": "address"
        }
      ],
      "name": "OwnableUnauthorizedAccount",
      "type": "error"
    },
    {
      "anonymous": false,
      "inputs": [
        {
          "indexed": true,
          "internalType": "address",
          "name": "owner",
          "type": "address"
        },
        {
          "indexed": true,
          "internalType": "address",
          "name": "spender",
          "type": "address"
        },
        {
          "indexed": false,
          "internalType": "uint256",
          "name": "value",
          "type": "uint256"
        }
      ],
      "name": "Approval",
      "type": "event"
    },
    {
      "anonymous": false,
      "inputs": [
        {
          "indexed": true,
          "internalType": "address",
          "name": "previousOwner",
          "type": "address"
        },
        {
          "indexed": true,
          "internalType": "address",
          "name": "newOwner",
          "type": "address"
        }
      ],
      "name": "OwnershipTransferred",
      "type": "event"
    },
    {
      "anonymous": false,
      "inputs": [
        {
          "indexed": true,
          "internalType": "address",
          "name": "from",
          "type": "address"
        },
        {
          "indexed": true,
          "internalType": "address",
          "name": "to",
          "type": "address"
        },
        {
          "indexed": false,
          "internalType": "uint256",
          "name": "value",
          "type": "uint256"
        }
      ],
      "name": "Transfer",
      "type": "event"
    },
    {
      "anonymous": false,
      "inputs": [
        {
          "indexed": true,
          "internalType": "address",
          "name": "_to",
          "type": "address"
        },
        {
          "indexed": false,
          "internalType": "uint256",
          "name": "_tokenAmt",
          "type": "uint256"
        }
      ],
      "name": "adminTokenDist",
      "type": "event"
    },
    {
      "anonymous": false,
      "inputs": [
        {
          "indexed": true,
          "internalType": "address",
          "name": "_to",
          "type": "address"
        },
        {
          "indexed": false,
          "internalType": "uint256",
          "name": "_etherAmt",
          "type": "uint256"
        },
        {
          "indexed": false,
          "internalType": "uint256",
          "name": "_tokenAmt",
          "type": "uint256"
        }
      ],
      "name": "depositPreSale",
      "type": "event"
    },
    {
      "anonymous": false,
      "inputs": [
        {
          "indexed": true,
          "internalType": "address",
          "name": "_to",
          "type": "address"
        },
        {
          "indexed": false,
          "internalType": "uint256",
          "name": "_etherAmt",
          "type": "uint256"
        },
        {
          "indexed": false,
          "internalType": "uint256",
          "name": "_tokenAmt",
          "type": "uint256"
        }
      ],
      "name": "depositPublicSale",
      "type": "event"
    },
    {
      "anonymous": false,
      "inputs": [
        {
          "indexed": true,
          "internalType": "address",
          "name": "_to",
          "type": "address"
        },
        {
          "indexed": false,
          "internalType": "uint256",
          "name": "_etherAmt",
          "type": "uint256"
        }
      ],
      "name": "preSaleRefundClaim",
      "type": "event"
    },
    {
      "anonymous": false,
      "inputs": [
        {
          "indexed": true,
          "internalType": "address",
          "name": "_to",
          "type": "address"
        },
        {
          "indexed": false,
          "internalType": "uint256",
          "name": "_etherAmt",
          "type": "uint256"
        }
      ],
      "name": "publicSaleRefundClaim",
      "type": "event"
    },
    {
      "inputs": [
        {
          "internalType": "address",
          "name": "owner",
          "type": "address"
        },
        {
          "internalType": "address",
          "name": "spender",
          "type": "address"
        }
      ],
      "name": "allowance",
      "outputs": [
        {
          "internalType": "uint256",
          "name": "",
          "type": "uint256"
        }
      ],
      "stateMutability": "view",
      "type": "function"
    },
    {
      "inputs": [
        {
          "internalType": "address",
          "name": "spender",
          "type": "address"
        },
        {
          "internalType": "uint256",
          "name": "value",
          "type": "uint256"
        }
      ],
      "name": "approve",
      "outputs": [
        {
          "internalType": "bool",
          "name": "",
          "type": "bool"
        }
      ],
      "stateMutability": "nonpayable",
      "type": "function"
    },
    {
      "inputs": [
        {
          "internalType": "address",
          "name": "account",
          "type": "address"
        }
      ],
      "name": "balanceOf",
      "outputs": [
        {
          "internalType": "uint256",
          "name": "",
          "type": "uint256"
        }
      ],
      "stateMutability": "view",
      "type": "function"
    },
    {
      "inputs": [],
      "name": "claimRefundPreSale",
      "outputs": [],
      "stateMutability": "nonpayable",
      "type": "function"
    },
    {
      "inputs": [],
      "name": "claimRefundPublicSale",
      "outputs": [],
      "stateMutability": "nonpayable",
      "type": "function"
    },
    {
      "inputs": [],
      "name": "decimals",
      "outputs": [
        {
          "internalType": "uint8",
          "name": "",
          "type": "uint8"
        }
      ],
      "stateMutability": "view",
      "type": "function"
    },
    {
      "inputs": [
        {
          "internalType": "uint256",
          "name": "_amount",
          "type": "uint256"
        },
        {
          "internalType": "address",
          "name": "_transferAddr",
          "type": "address"
        }
      ],
      "name": "distributeTokenAdmin",
      "outputs": [],
      "stateMutability": "nonpayable",
      "type": "function"
    },
    {
      "inputs": [],
      "name": "endTimestampPreSale",
      "outputs": [
        {
          "internalType": "uint256",
          "name": "",
          "type": "uint256"
        }
      ],
      "stateMutability": "view",
      "type": "function"
    },
    {
      "inputs": [],
      "name": "endTimestampPublicSale",
      "outputs": [
        {
          "internalType": "uint256",
          "name": "",
          "type": "uint256"
        }
      ],
      "stateMutability": "view",
      "type": "function"
    },
    {
      "inputs": [],
      "name": "isPublicSale",
      "outputs": [
        {
          "internalType": "bool",
          "name": "",
          "type": "bool"
        }
      ],
      "stateMutability": "view",
      "type": "function"
    },
    {
      "inputs": [],
      "name": "maxEtherCapPreSale",
      "outputs": [
        {
          "internalType": "uint256",
          "name": "",
          "type": "uint256"
        }
      ],
      "stateMutability": "view",
      "type": "function"
    },
    {
      "inputs": [],
      "name": "maxEtherCapPublicSale",
      "outputs": [
        {
          "internalType": "uint256",
          "name": "",
          "type": "uint256"
        }
      ],
      "stateMutability": "view",
      "type": "function"
    },
    {
      "inputs": [],
      "name": "maxUserContributionPreSale",
      "outputs": [
        {
          "internalType": "uint256",
          "name": "",
          "type": "uint256"
        }
      ],
      "stateMutability": "view",
      "type": "function"
    },
    {
      "inputs": [],
      "name": "maxUserContributionPublicSale",
      "outputs": [
        {
          "internalType": "uint256",
          "name": "",
          "type": "uint256"
        }
      ],
      "stateMutability": "view",
      "type": "function"
    },
    {
      "inputs": [],
      "name": "minEtherCapPreSale",
      "outputs": [
        {
          "internalType": "uint256",
          "name": "",
          "type": "uint256"
        }
      ],
      "stateMutability": "view",
      "type": "function"
    },
    {
      "inputs": [],
      "name": "minEtherCapPublicSale",
      "outputs": [
        {
          "internalType": "uint256",
          "name": "",
          "type": "uint256"
        }
      ],
      "stateMutability": "view",
      "type": "function"
    },
    {
      "inputs": [],
      "name": "minUserContributionPreSale",
      "outputs": [
        {
          "internalType": "uint256",
          "name": "",
          "type": "uint256"
        }
      ],
      "stateMutability": "view",
      "type": "function"
    },
    {
      "inputs": [],
      "name": "minUserContributionPublicSale",
      "outputs": [
        {
          "internalType": "uint256",
          "name": "",
          "type": "uint256"
        }
      ],
      "stateMutability": "view",
      "type": "function"
    },
    {
      "inputs": [],
      "name": "name",
      "outputs": [
        {
          "internalType": "string",
          "name": "",
          "type": "string"
        }
      ],
      "stateMutability": "view",
      "type": "function"
    },
    {
      "inputs": [],
      "name": "owner",
      "outputs": [
        {
          "internalType": "address",
          "name": "",
          "type": "address"
        }
      ],
      "stateMutability": "view",
      "type": "function"
    },
    {
      "inputs": [],
      "name": "presale",
      "outputs": [],
      "stateMutability": "payable",
      "type": "function"
    },
    {
      "inputs": [],
      "name": "publicSale",
      "outputs": [],
      "stateMutability": "payable",
      "type": "function"
    },
    {
      "inputs": [],
      "name": "remainingEthPreSale",
      "outputs": [
        {
          "internalType": "uint256",
          "name": "",
          "type": "uint256"
        }
      ],
      "stateMutability": "view",
      "type": "function"
    },
    {
      "inputs": [],
      "name": "remainingEthPublicSale",
      "outputs": [
        {
          "internalType": "uint256",
          "name": "",
          "type": "uint256"
        }
      ],
      "stateMutability": "view",
      "type": "function"
    },
    {
      "inputs": [],
      "name": "renounceOwnership",
      "outputs": [],
      "stateMutability": "nonpayable",
      "type": "function"
    },
    {
      "inputs": [
        {
          "internalType": "uint256",
          "name": "_endTimestampPublicSale",
          "type": "uint256"
        },
        {
          "internalType": "uint256",
          "name": "_maxEtherCapPublicSale",
          "type": "uint256"
        },
        {
          "internalType": "uint256",
          "name": "_minUserContributionPublicSale",
          "type": "uint256"
        },
        {
          "internalType": "uint256",
          "name": "_maxUserContributionPublicSale",
          "type": "uint256"
        },
        {
          "internalType": "uint256",
          "name": "_tokenPricePublicSale",
          "type": "uint256"
        },
        {
          "internalType": "uint256",
          "name": "_minEtherCapPublicSale",
          "type": "uint256"
        }
      ],
      "name": "startPublicSale",
      "outputs": [
        {
          "internalType": "bool",
          "name": "",
          "type": "bool"
        }
      ],
      "stateMutability": "nonpayable",
      "type": "function"
    },
    {
      "inputs": [],
      "name": "startTimestampPreSale",
      "outputs": [
        {
          "internalType": "uint256",
          "name": "",
          "type": "uint256"
        }
      ],
      "stateMutability": "view",
      "type": "function"
    },
    {
      "inputs": [],
      "name": "symbol",
      "outputs": [
        {
          "internalType": "string",
          "name": "",
          "type": "string"
        }
      ],
      "stateMutability": "view",
      "type": "function"
    },
    {
      "inputs": [],
      "name": "tokenPricePreSale",
      "outputs": [
        {
          "internalType": "uint256",
          "name": "",
          "type": "uint256"
        }
      ],
      "stateMutability": "view",
      "type": "function"
    },
    {
      "inputs": [],
      "name": "tokenPricePublicSale",
      "outputs": [
        {
          "internalType": "uint256",
          "name": "",
          "type": "uint256"
        }
      ],
      "stateMutability": "view",
      "type": "function"
    },
    {
      "inputs": [],
      "name": "totalSupply",
      "outputs": [
        {
          "internalType": "uint256",
          "name": "",
          "type": "uint256"
        }
      ],
      "stateMutability": "view",
      "type": "function"
    },
    {
      "inputs": [
        {
          "internalType": "address",
          "name": "to",
          "type": "address"
        },
        {
          "internalType": "uint256",
          "name": "value",
          "type": "uint256"
        }
      ],
      "name": "transfer",
      "outputs": [
        {
          "internalType": "bool",
          "name": "",
          "type": "bool"
        }
      ],
      "stateMutability": "nonpayable",
      "type": "function"
    },
    {
      "inputs": [
        {
          "internalType": "address",
          "name": "from",
          "type": "address"
        },
        {
          "internalType": "address",
          "name": "to",
          "type": "address"
        },
        {
          "internalType": "uint256",
          "name": "value",
          "type": "uint256"
        }
      ],
      "name": "transferFrom",
      "outputs": [
        {
          "internalType": "bool",
          "name": "",
          "type": "bool"
        }
      ],
      "stateMutability": "nonpayable",
      "type": "function"
    },
    {
      "inputs": [
        {
          "internalType": "address",
          "name": "newOwner",
          "type": "address"
        }
      ],
      "name": "transferOwnership",
      "outputs": [],
      "stateMutability": "nonpayable",
      "type": "function"
    },
    {
      "stateMutability": "payable",
      "type": "receive"
    }
  ],
  "bytecode": {
    "object": "0x60806040523480156200001157600080fd5b506040516200174a3803806200174a83398101604081905262000034916200015a565b336040518060400160405280600e81526020016d29bab83930a232b6b7aa37b5b2b760911b81525060405180604001604052806009815260200168535550524144454d4f60b81b81525081600390816200008f919062000254565b5060046200009e828262000254565b5050506001600160a01b038116620000d057604051631e4fbdf760e01b81526000600482015260240160405180910390fd5b620000db8162000108565b50600896909655600994909455600b839055600d91909155600e5560069190915560115560135562000320565b600580546001600160a01b038381166001600160a01b0319831681179093556040519116919082907f8be0079c531659141344cd1fd0a4f28419497f9722a3daafe3b4186f6b6457e090600090a35050565b600080600080600080600060e0888a0312156200017657600080fd5b5050855160208701516040880151606089015160808a015160a08b015160c0909b0151949c939b50919990985090965094509092509050565b634e487b7160e01b600052604160045260246000fd5b600181811c90821680620001da57607f821691505b602082108103620001fb57634e487b7160e01b600052602260045260246000fd5b50919050565b601f8211156200024f57600081815260208120601f850160051c810160208610156200022a5750805b601f850160051c820191505b818110156200024b5782815560010162000236565b5050505b505050565b81516001600160401b03811115620002705762000270620001af565b6200028881620002818454620001c5565b8462000201565b602080601f831160018114620002c05760008415620002a75750858301515b600019600386901b1c1916600185901b1785556200024b565b600085815260208120601f198616915b82811015620002f157888601518255948401946001909101908401620002d0565b5085821015620003105787850151600019600388901b60f8161c191681555b5050505050600190811b01905550565b61141a80620003306000396000f3fe6080604052600436106101fc5760003560e01c806378c5fe371161010d578063b393293e116100a0578063e4fa9cf41161006f578063e4fa9cf414610549578063eaaea8d01461055f578063f2fde38b14610575578063fdea8e0b14610595578063ffc0b6ac1461059d57600080fd5b8063b393293e146104b7578063d0a08012146104cd578063dcae65ee146104ed578063dd62ed3e1461050357600080fd5b8063970b76a6116100dc578063970b76a61461044b578063a5a865dc14610461578063a9059cbb14610482578063aa776d82146104a257600080fd5b806378c5fe37146103e257806384e22a65146103f85780638da5cb5b1461040e57806395d89b411461043657600080fd5b80632356bb861161019057806341b587a41161015f57806341b587a414610356578063537c64011461036c57806357e621f31461038157806370a0823114610397578063715018a6146103cd57600080fd5b80632356bb86146102fa57806323b872dd14610310578063313ce5671461033057806333bc1c5c1461034c57600080fd5b80630d952049116101cc5780630d9520491461029957806318160ddd146102b9578063181a91ca146102ce5780631fb1c81f146102e457600080fd5b8062142b491461020857806306fdde0314610231578063095ea7b3146102535780630cd8109c1461028357600080fd5b3661020357005b600080fd5b34801561021457600080fd5b5061021e600d5481565b6040519081526020015b60405180910390f35b34801561023d57600080fd5b506102466105b3565b604051610228919061102f565b34801561025f57600080fd5b5061027361026e366004611099565b610645565b6040519015158152602001610228565b34801561028f57600080fd5b5061021e600c5481565b3480156102a557600080fd5b506102736102b43660046110c3565b61065f565b3480156102c557600080fd5b5060025461021e565b3480156102da57600080fd5b5061021e60145481565b3480156102f057600080fd5b5061021e600a5481565b34801561030657600080fd5b5061021e60085481565b34801561031c57600080fd5b5061027361032b366004611106565b6106f8565b34801561033c57600080fd5b5060405160128152602001610228565b61035461071c565b005b34801561036257600080fd5b5061021e60115481565b34801561037857600080fd5b50610354610861565b34801561038d57600080fd5b5061021e600b5481565b3480156103a357600080fd5b5061021e6103b2366004611142565b6001600160a01b031660009081526020819052604090205490565b3480156103d957600080fd5b506103546109c8565b3480156103ee57600080fd5b5061021e60075481565b34801561040457600080fd5b5061021e60095481565b34801561041a57600080fd5b506005546040516001600160a01b039091168152602001610228565b34801561044257600080fd5b506102466109dc565b34801561045757600080fd5b5061021e600e5481565b34801561046d57600080fd5b5060055461027390600160a01b900460ff1681565b34801561048e57600080fd5b5061027361049d366004611099565b6109eb565b3480156104ae57600080fd5b506103546109f9565b3480156104c357600080fd5b5061021e60065481565b3480156104d957600080fd5b506103546104e8366004611164565b610a90565b3480156104f957600080fd5b5061021e60125481565b34801561050f57600080fd5b5061021e61051e366004611190565b6001600160a01b03918216600090815260016020908152604080832093909416825291909152205490565b34801561055557600080fd5b5061021e600f5481565b34801561056b57600080fd5b5061021e60105481565b34801561058157600080fd5b50610354610590366004611142565b610ade565b610354610b1c565b3480156105a957600080fd5b5061021e60135481565b6060600380546105c2906111ba565b80601f01602080910402602001604051908101604052809291908181526020018280546105ee906111ba565b801561063b5780601f106106105761010080835404028352916020019161063b565b820191906000526020600020905b81548152906001019060200180831161061e57829003601f168201915b5050505050905090565b600033610653818585610c73565b60019150505b92915050565b6000610669610c85565b42600954106106bf5760405162461bcd60e51b815260206004820152601760248201527f70726573616c65206973206e6f74206f7665722079657400000000000000000060448201526064015b60405180910390fd5b506005805460ff60a01b1916600160a01b179055600a95909555600c849055600f92909255601055600755601491909155601255600190565b600033610706858285610cb2565b610711858585610d30565b506001949350505050565b600554600160a01b900460ff161515600114801561073b575042600a54115b6107875760405162461bcd60e51b815260206004820152601e60248201527f7075626c69632073616c65206973206e6f74207374617274656420796574000060448201526064016106b6565b6012543411156107a95760405162461bcd60e51b81526004016106b6906111f4565b600f543410156107cb5760405162461bcd60e51b81526004016106b69061123e565b6010543411156107ed5760405162461bcd60e51b81526004016106b690611286565b6000600754346107fd91906112e4565b905034601260008282546108119190611306565b9091555061082190503382610d8f565b50604080513481526020810183905233917fe6739416f1effecdd1bc74de8cb2089e7c75cddc508632d0f27ca11f4f653f1d91015b60405180910390a250565b426009541080156108825750601354601154600b546108809190611306565b105b61089e5760405162461bcd60e51b81526004016106b690611319565b33600090815260208190526040812054116108cb5760405162461bcd60e51b81526004016106b690611376565b336000908152602081905260409020546108e530826109eb565b5060065460009033906108f890846113ba565b604051600081818185875af1925050503d8060008114610934576040519150601f19603f3d011682016040523d82523d6000602084013e610939565b606091505b50509050806109815760405162461bcd60e51b81526020600482015260146024820152732330b4b632b2103a379039b2b7321022ba3432b960611b60448201526064016106b6565b60065433907f5cbe859760ed76424f7550e9c141659a615074a9398ffaf19e1b23046c76ec09906109b290856113ba565b6040519081526020015b60405180910390a25050565b6109d0610c85565b6109da6000610da4565b565b6060600480546105c2906111ba565b600033610653818585610d30565b42600a54108015610a1a5750601454601254600c54610a189190611306565b105b610a365760405162461bcd60e51b81526004016106b690611319565b3360009081526020819052604081205411610a635760405162461bcd60e51b81526004016106b690611376565b33600090815260208190526040902054610a7d30826109eb565b5060075460009033906108f890846113ba565b610a98610c85565b610aa28183610d8f565b50806001600160a01b03167fdf324260eaa319e2da481c334524f18aa999f9ea4936f7ca74c68bd7a9c46fac836040516109bc91815260200190565b610ae6610c85565b6001600160a01b038116610b1057604051631e4fbdf760e01b8152600060048201526024016106b6565b610b1981610da4565b50565b42600854108015610b2e575042600954115b610ba05760405162461bcd60e51b815260206004820152603860248201527f7468652061756374696f6e20697320656974686572206e6f742073746172746560448201527f64206f722061756374696f6e2069732066696e6973686564000000000000000060648201526084016106b6565b601154341115610bc25760405162461bcd60e51b81526004016106b6906111f4565b600d54341015610be45760405162461bcd60e51b81526004016106b69061123e565b600e54341115610c065760405162461bcd60e51b81526004016106b690611286565b600060065434610c1691906112e4565b90503460116000828254610c2a9190611306565b90915550610c3a90503382610d8f565b50604080513481526020810183905233917f85829429391d04c77a05d7a17a7d843f5549136b660b4168dcf32ed74fe7192d9101610856565b610c808383836001610df6565b505050565b6005546001600160a01b031633146109da5760405163118cdaa760e01b81523360048201526024016106b6565b6001600160a01b038381166000908152600160209081526040808320938616835292905220546000198114610d2a5781811015610d1b57604051637dc7a0d960e11b81526001600160a01b038416600482015260248101829052604481018390526064016106b6565b610d2a84848484036000610df6565b50505050565b6001600160a01b038316610d5a57604051634b637e8f60e11b8152600060048201526024016106b6565b6001600160a01b038216610d845760405163ec442f0560e01b8152600060048201526024016106b6565b610c80838383610ecb565b6000610d9b8383610ff5565b50600192915050565b600580546001600160a01b038381166001600160a01b0319831681179093556040519116919082907f8be0079c531659141344cd1fd0a4f28419497f9722a3daafe3b4186f6b6457e090600090a35050565b6001600160a01b038416610e205760405163e602df0560e01b8152600060048201526024016106b6565b6001600160a01b038316610e4a57604051634a1406b160e11b8152600060048201526024016106b6565b6001600160a01b0380851660009081526001602090815260408083209387168352929052208290558015610d2a57826001600160a01b0316846001600160a01b03167f8c5be1e5ebec7d5bd14f71427d1e84f3dd0314c0f7b2291e5b200ac8c7c3b92584604051610ebd91815260200190565b60405180910390a350505050565b6001600160a01b038316610ef6578060026000828254610eeb91906113d1565b90915550610f689050565b6001600160a01b03831660009081526020819052604090205481811015610f495760405163391434e360e21b81526001600160a01b038516600482015260248101829052604481018390526064016106b6565b6001600160a01b03841660009081526020819052604090209082900390555b6001600160a01b038216610f8457600280548290039055610fa3565b6001600160a01b03821660009081526020819052604090208054820190555b816001600160a01b0316836001600160a01b03167fddf252ad1be2c89b69c2b068fc378daa952ba7f163c4a11628f55a4df523b3ef83604051610fe891815260200190565b60405180910390a3505050565b6001600160a01b03821661101f5760405163ec442f0560e01b8152600060048201526024016106b6565b61102b60008383610ecb565b5050565b600060208083528351808285015260005b8181101561105c57858101830151858201604001528201611040565b506000604082860101526040601f19601f8301168501019250505092915050565b80356001600160a01b038116811461109457600080fd5b919050565b600080604083850312156110ac57600080fd5b6110b58361107d565b946020939093013593505050565b60008060008060008060c087890312156110dc57600080fd5b505084359660208601359650604086013595606081013595506080810135945060a0013592509050565b60008060006060848603121561111b57600080fd5b6111248461107d565b92506111326020850161107d565b9150604084013590509250925092565b60006020828403121561115457600080fd5b61115d8261107d565b9392505050565b6000806040838503121561117757600080fd5b823591506111876020840161107d565b90509250929050565b600080604083850312156111a357600080fd5b6111ac8361107d565b91506111876020840161107d565b600181811c908216806111ce57607f821691505b6020821081036111ee57634e487b7160e01b600052602260045260246000fd5b50919050565b6020808252602a908201527f6d6178696d756d20636170206f6e20657468657265756d2072616973696e67206040820152691a5cc81c995858da195960b21b606082015260800190565b60208082526028908201527f616d6f756e74206973206c657373207468616e206d696e696d756d20636f6e746040820152673934b13aba34b7b760c11b606082015260800190565b60208082526028908201527f616d6f756e74206973206d6f7265207468616e206d6178696d756d20636f6e746040820152673934b13aba34b7b760c11b606082015260800190565b634e487b7160e01b600052601160045260246000fd5b60008261130157634e487b7160e01b600052601260045260246000fd5b500490565b81810381811115610659576106596112ce565b6020808252603c908201527f726566756e642063616e206f6e6c7920626520636c61696d6564206966206d6960408201527f6e696d756d2063617020697320616c7265616479207265616368656400000000606082015260800190565b60208082526024908201527f6e6f2073757072612064656d6f20746f6b656e2062616c616e6365206465746560408201526318dd195960e21b606082015260800190565b8082028115828204841417610659576106596112ce565b80820180821115610659576106596112ce56fea2646970667358221220c469224b7e7ffb955360a9b6b3418474e2b2d6d938ed1dfa2536a041d3c695f264736f6c63430008140033",
    "linkReferences": {}
  },
  "methodIdentifiers": {
    "allowance(address,address)": "dd62ed3e",
    "approve(address,uint256)": "095ea7b3",
    "balanceOf(address)": "70a08231",
    "claimRefundPreSale()": "537c6401",
    "claimRefundPublicSale()": "aa776d82",
    "decimals()": "313ce567",
    "distributeTokenAdmin(uint256,address)": "d0a08012",
    "endTimestampPreSale()": "84e22a65",
    "endTimestampPublicSale()": "1fb1c81f",
    "isPublicSale()": "a5a865dc",
    "maxEtherCapPreSale()": "57e621f3",
    "maxEtherCapPublicSale()": "0cd8109c",
    "maxUserContributionPreSale()": "970b76a6",
    "maxUserContributionPublicSale()": "eaaea8d0",
    "minEtherCapPreSale()": "ffc0b6ac",
    "minEtherCapPublicSale()": "181a91ca",
    "minUserContributionPreSale()": "00142b49",
    "minUserContributionPublicSale()": "e4fa9cf4",
    "name()": "06fdde03",
    "owner()": "8da5cb5b",
    "presale()": "fdea8e0b",
    "publicSale()": "33bc1c5c",
    "remainingEthPreSale()": "41b587a4",
    "remainingEthPublicSale()": "dcae65ee",
    "renounceOwnership()": "715018a6",
    "startPublicSale(uint256,uint256,uint256,uint256,uint256,uint256)": "0d952049",
    "startTimestampPreSale()": "2356bb86",
    "symbol()": "95d89b41",
    "tokenPricePreSale()": "b393293e",
    "tokenPricePublicSale()": "78c5fe37",
    "totalSupply()": "18160ddd",
    "transfer(address,uint256)": "a9059cbb",
    "transferFrom(address,address,uint256)": "23b872dd",
    "transferOwnership(address)": "f2fde38b"
  },
  "id": 27
}